:020000040000FA
:1000000040070020ED040000F5040000F7040000A4
:10001000F9040000FB040000FD04000000000000E3
:10002000000000000000000000000000FF040000CD
:100030000105000000000000030500006508000045
:100040000705000007050000070500000705000080
:100050000705000007050000070500000705000070
:100060000705000007050000070500000705000060
:100070000705000007050000070500000705000050
:100080000705000007050000070500000705000040
:100090000705000007050000070500000705000030
:1000A0000705000007050000070500000705000020
:1000B0000705000007050000070500000705000010
:1000C0000705000007050000070500000705000000
:1000D00007050000070500000705000007050000F0
:1000E00007050000070500000705000007050000E0
:1000F00007050000590A0000070500000705000079
:1001000007050000070500000705000007050000BF
:1001100007050000070500000705000007050000AF
:10012000070500000705000007050000070500009F
:10013000070500000705000007050000070500008F
:10014000070500000705000007050000070500007F
:10015000070500000705000007050000070500006F
:10016000070500000705000007050000070500005F
:10017000070500000705000007050000070500004F
:10018000070500000705000007050000070500003F
:10019000070500000705000007050000070500002F
:1001A00007050000710700000705000007050000B3
:1001B000070500000705000007050000070500000F
:1001C00007050000070500000705000007050000FF
:1001D00007050000070500000705000007050000EF
:1001E00007050000070500000705000007050000DF
:10040000FFFFFFFFFFFFFFFFFFFFFFFFFEFFFFFFFD
:1004100000F002F800F05AF80AA090E8000C8244BC
:100420008344AAF10107DA4501D100F04FF8AFF299
:10043000090EBAE80F0013F0010F18BFFB1A43F0C2
:100440000103184704070000240700000A444FF086
:10045000000C10F8013B13F0070408BF10F8014B23
:100460001D1108BF10F8015B641E05D010F8016B68
:10047000641E01F8016BF9D113F0080F1EBF10F8CC
:10048000014BAD1C0C1B09D16D1E58BF01F801CBEF
:10049000FAD505E014F8016B01F8016B6D1EF9D572
:1004A0009142D6D370470000002300240025002687
:1004B000103A28BF78C1FBD8520728BF30C148BFC7
:1004C0000B6070471FB51FBD10B510BD00F02FF8B1
:1004D0001146FFF7F7FF00F0D5FA00F04DF803B42E
:1004E000FFF7F2FF03BC00F055F800000948804711
:1004F00009480047FEE7FEE7FEE7FEE7FEE7FEE706
:10050000FEE7FEE7FEE7FEE704480549034A054B20
:10051000704700007D080000110400004003002027
:100520004007002040030020704770477047754621
:1005300000F02CF8AE4605006946534620F007004F
:10054000854618B020B5FFF7DFFFBDE820404FF02B
:1005500000064FF000074FF000084FF0000B21F0AD
:100560000701AC46ACE8C009ACE8C009ACE8C0097A
:10057000ACE8C0098D46704710B50446AFF3008063
:100580002046BDE81040FFF7AABF000000487047B2
:10059000DC02002001491820ABBEFEE72600020065
:1005A000704700000A48C06B40F000600849C8630B
:1005B0001420084988601220C860002008620E20BC
:1005C000486200208861C86104208862704700008A
:1005D0000080044000B0034040B3062826D8411EE6
:1005E0004900134A52F821104968421E5200114B2B
:1005F00053F822201143421E52000D4B53F8222083
:100600005160411E4900491C1A4652F82110896860
:10061000421E5200521C074B53F822201143421E27
:100620005200521C024B53F8222091607047000088
:10063000A8020020180B00000C48806B40F40060FA
:100640000A49886388150A4948610A48006820F009
:10065000200008498039C1F880000846D0F894008D
:1006600040F02000C1F89400704700000080044072
:1006700000B0044080F00F400448006840F02000C3
:1006800002498C39C1F88C00704700008CF00F4093
:100690003248806B40F40070304988630846806BB4
:1006A00040F4006088630846806B40F480508863A3
:1006B0002B48806840F480702949886008460069AA
:1006C00040F4807008610846C06840F48070C860DB
:1006D0002448C06840F480702249C8600846006918
:1006E00040F4807008610846806840F4807088603B
:1006F0000846C06940F48070C8611B48406B40F4F4
:100700008070194948630846006B40F480700863A4
:100710001448006840F480701249086008468069F7
:1007200040F4807088610E48406840F480700C4945
:1007300048600E48406940F440500C4948610B48FD
:100740009430006840F01E00C1F894000846D0F8CC
:10075000D40040F0DD00C1F8D400704700800440B0
:1007600000B0044000C004400090044000F00F407E
:100770001848806900F0807090B11748007804280C
:1007800005DA15480078401C1349087002E0002083
:10079000114908700F48806940F080700D498861E8
:1007A0000C48C06900F0807090B10C4800780228B5
:1007B00005DA0A480078401C0849087002E0002069
:1007C000064908700348C06940F080700149C8615B
:1007D0007047000000B00440A1020020A0020020E9
:1007E00010B51C48806B40F400601A4988631A48B1
:1007F00080691A490843184988610846806940F0B1
:10080000100088610846806920F001008861084670
:10081000C069124908431049C8610846C06940F0E0
:100820001000C8610846C06920F00100C8610C488A
:1008300000680B499439C1F89400094800680849D8
:100840000860C0200449A0310860592000F00CF96C
:1008500010BD00000080044000B004400201090007
:1008600094F00F4010B5FFF707FF03480068401CE5
:100870000149086010BD0000A40200204CF2205085
:100880005349C8814DF62810C8814FF4E97008809B
:100890005048514948640846806B40F400708863B2
:1008A0004E48807800F0080028B14C48807840F02D
:1008B00008004A4988704FF08970474948640846E3
:1008C000406840F4803048604548006840F440206B
:1008D000434908604348806C434908404149886463
:1008E0000846C06C404908403E49C86424203F493E
:1008F000487080203E4908703C48007B00F0FE00B4
:100900003A490873A22008700846C07800F01F001A
:10091000C870072008710C20487100BF33488079E7
:1009200000F002000028F9D000BF3048807900F0C4
:1009300010000028F9D100BF2C48807900F00C008D
:100940000828F9D14C202949487100BF27488079EF
:1009500000F00C000828F9D100BF2448807900F08D
:1009600040000028F9D022202049087000BF1F480D
:10097000807900F00C000C28F9D11A48006920F0A9
:10098000807040F4E060174908611A48407900F02F
:10099000E000184948710846007900F0F800087135
:1009A0000E48007800F0DC0040F050000B49087061
:1009B0000846407800F0DC0040F0400048700846EF
:1009C000807800F0E600887000200B4908707047BE
:1009D00000200540000033010080044000D00740A3
:1009E0000070044000900440FFF8FFFE0040064005
:1009F0000050064000F0074000E0074010B51348E3
:100A0000806B40F48060114988630846406B40F475
:100A10008060486340F213300D4908644FF4517010
:100A200048640C48C07800F0F3000A49C870002000
:100A300008702720487002208872042088702C20BB
:100A4000C8702D2000F010F810BD00000080044098
:100A500000A0044000A00640024909790149C87974
:100A6000C871704700A00640002809DB00F01F0293
:100A7000012191404209920002F1E022C2F80011E6
:100A800070470000FFF7ACFEFFF7D6FDFFF78AFDC9
:100A9000FFF7B4FFFFF7FCFD164800680A22B0FB21
:100AA000F2F1481EB0F1807F00D31BE0481E4FF0EA
:100AB000E022506150170F22002804DB13071C0EA0
:100AC0000D4B1C5406E013071D0E0C4B00F00F04D9
:100AD000241F1D5500BF00204FF0E0229061072029
:100AE000106100BF05E00120FFF776FD0220FFF74F
:100AF00073FDF8E7D802002000E400E018ED00E004
:100B0000050E08090D0C06070F04001303931A9233
:100B100017C585848687C40010000000040000000B
:100B200008000000080000001000000004000000A1
:100B30008000000000200000001000000100000004
:100B40004000000002000000680B000000000020D0
:100B5000DC0200004C0400008C0B0000DC020020D2
:100B600064040000A804000092010265A009FD7061
:100B700009FD70013A6D80F00F4004DAC00411598C
:0C0B80000469102924110400A24A04009A
:04000005000004ED06
:00000001FF
