:020000040000FA
:1000000058070020ED040000F5040000F70400008C
:10001000F9040000FB040000FD04000000000000E3
:10002000000000000000000000000000FF040000CD
:10003000010500000000000003050000C90B0000DE
:100040000705000007050000070500000705000080
:100050000705000007050000070500000705000070
:100060000705000007050000070500000705000060
:100070000705000007050000070500000705000050
:100080000705000007050000070500000705000040
:100090000705000007050000070500000705000030
:1000A0000705000007050000070500000705000020
:1000B0000705000007050000070500000705000010
:1000C0000705000007050000070500000705000000
:1000D00007050000070500000705000007050000F0
:1000E00007050000070500000705000007050000E0
:1000F00007050000490E0000070500000705000085
:1001000007050000070500000705000007050000BF
:1001100007050000070500000705000007050000AF
:10012000070500000705000007050000070500009F
:10013000070500000705000007050000070500008F
:10014000070500000705000007050000070500007F
:10015000070500000705000007050000070500006F
:10016000070500000705000007050000070500005F
:10017000070500000705000007050000070500004F
:10018000070500000705000007050000070500003F
:10019000070500000705000007050000070500002F
:1001A00007050000C10A0000070500000705000060
:1001B000070500000705000007050000070500000F
:1001C00007050000070500000705000007050000FF
:1001D00007050000070500000705000007050000EF
:1001E00007050000070500000705000007050000DF
:10040000FFFFFFFFFFFFFFFFFFFFFFFFFEFFFFFFFD
:1004100000F002F800F05AF80AA090E8000C8244BC
:100420008344AAF10107DA4501D100F04FF8AFF299
:10043000090EBAE80F0013F0010F18BFFB1A43F0C2
:1004400001031847700B0000900B00000A444FF0A6
:10045000000C10F8013B13F0070408BF10F8014B23
:100460001D1108BF10F8015B641E05D010F8016B68
:10047000641E01F8016BF9D113F0080F1EBF10F8CC
:10048000014BAD1C0C1B09D16D1E58BF01F801CBEF
:10049000FAD505E014F8016B01F8016B6D1EF9D572
:1004A0009142D6D370470000002300240025002687
:1004B000103A28BF78C1FBD8520728BF30C148BFC7
:1004C0000B6070471FB51FBD10B510BD00F0CCF814
:1004D0001146FFF7F7FF00F0D9FC00F0EAF803B48B
:1004E000FFF7F2FF03BC00F0F1F800000948804775
:1004F00009480047FEE7FEE7FEE7FEE7FEE7FEE706
:10050000FEE7FEE7FEE7FEE704480549034A054B20
:10051000704700006D0C000011040000580300201B
:1005200058070020580300202DE9F00100235FEA5E
:10053000910C16D0BCF1004F3FD20124BCF1010F49
:100540000FDB00BF50F8045B03FA85F303EB25458E
:1005500050F8043B05FA83F5641C05EB2343A445DE
:10056000F0DA11F0030C22D0BCF1004F35D2ACF11F
:100570000105002D15DD841E1CF0010F02D134F998
:10058000026F3344B4F9027000266D1008D000BF2A
:1005900034F9048F3B44B4F9027046446D1EF7D120
:1005A0003344BCF1010C5CBF30F91C00034493FBE5
:1005B000F1F01080BDE8F001704750F8044B03FAE9
:1005C00084F303EB244450F8043B04FA83F404EB73
:1005D0002343BCF1010CF0D1C3E730F9024BBCF16D
:1005E000010C2344F9D1E2E710B49308C0EA004CAF
:1005F0000DD0B3F1004F27D20124012B07DB00BF40
:1006000041F804CB641C41F804CBA342F8DA12F0A1
:10061000030204BF10BC7047B2F1004F1BD2002A86
:10062000DCBF10BC7047891E12F0010F18BF21F803
:10063000020F520804BF10BC7047488021F8040F15
:10064000521EFAD110BC704741F804CB5B1E41F832
:1006500004CBF9D1DBE721F8020B521EFBD110BC11
:100660007047704770477047754600F02BF8AE46EC
:1006700005006946534620F00700854618B020B5AE
:10068000FFF742FFBDE820404FF000064FF00007A3
:100690004FF000084FF0000B21F00701AC46ACE82A
:1006A000C009ACE8C009ACE8C009ACE8C0098D4697
:1006B000704710B50446AFF300802046BDE81040F7
:1006C000FFF70DBF00487047F802002001491820CD
:1006D000ABBEFEE726000200704700000A48C06B70
:1006E00040F000600849C86314200849886012205F
:1006F000C860002008620E20486200208861C8613E
:1007000004208862704700000080044000B003406D
:1007100001460848425C02F01F00074B186000BF0A
:100720000548006800F080000028F9D00248006900
:1007300080B270476C0F000000B0034070B50446F3
:100740000D46022D38D1207830B101280AD0022878
:100750000ED003282FD125E002202070607800F011
:10076000BDF828E002202070607800F0B7F822E0A1
:1007700004F10C023221101DFFF7D6FEB4F90C0073
:10078000B4F90E10884207DA2078022804D12070CC
:10079000607800F043F804E003202070607800F0F7
:1007A0009DF808E00320207060688008A0606078F1
:1007B00000F094F800BF2FE0207830B1012818D065
:1007C00002281CD0032826D11FE0D4E90101884269
:1007D00007D9207828B900202070607800F04EF802
:1007E00006E00120207000206060607800F076F85C
:1007F00011E001202070607800F070F80BE000201C
:100800002070607800F06AF805E0002020706078C1
:1008100000F064F800BF00BF70BD0000002828DDB4
:10082000062826DC411E4900124A52F82110496868
:10083000421E5200104B53F822201143421E520018
:100840000C4B53F822205160411E4900491C1A46A6
:1008500052F821108968421E5200521C064B53F870
:1008600022201143421E5200521C024B53F82220F8
:1008700091607047C4020020840F0000002828DD2A
:10088000062826DC411E4900124A52F821108968C8
:10089000421E5200104B53F822201143421E5200B8
:1008A0000C4B53F822209160411E4900491C1A4606
:1008B00052F821104968421E5200521C064B53F850
:1008C00022201143421E5200521C024B53F8222098
:1008D00051607047C4020020840F0000002828DD0A
:1008E000062826DC411E4900124A52F82110896868
:1008F000421E5200104B53F822201143421E520058
:100900000C4B53F822209160411E4900491C1A46A5
:1009100052F821108968421E5200521C064B53F8AF
:1009200022201143421E5200521C024B53F8222037
:1009300091607047C4020020840F0000017831B13B
:10094000012908D0022909D003290ED10AE0416803
:10095000491E416009E00021416006E04168491CF0
:10096000416002E04168416000BF00BF7047000085
:100970000C48806B40F400600A49886388150A4976
:1009800048610A48006820F0200008498039C1F811
:1009900080000846D0F8940040F02000C1F8940090
:1009A000704700000080044000B0044080F00F4019
:1009B0000448006840F0200002498839C1F88800E6
:1009C0007047000088F00F400448006840F02000A5
:1009D00002498439C1F884007047000084F00F4058
:1009E0003248806B40F40070304988630846806B61
:1009F00040F4006088630846806B40F48050886350
:100A00002B48806840F48070294988600846006956
:100A100040F4807008610846C06840F48070C86087
:100A20002448C06840F480702249C86008460069C4
:100A300040F4807008610846806840F480708860E7
:100A40000846C06940F48070C8611B48406B40F4A0
:100A50008070194948630846006B40F48070086351
:100A60001448006840F480701249086008468069A4
:100A700040F4807088610E48406840F480700C49F2
:100A800048600E48406940F440500C4948610B48AA
:100A90009430006840F01E00C1F894000846D0F879
:100AA000D40040F0DD00C1F8D4007047008004405D
:100AB00000B0044000C004400090044000F00F402B
:100AC00010B51D48806900F08070C0B11B480078E7
:100AD000052805DA19480078401C1849087002E01A
:100AE000002016490870154909783031C8B200F065
:100AF000B3F91148806940F080700F4988610E4851
:100B0000C06900F08070B0B10D480078012807DAA4
:100B10000B480078401C0A490870FFF755FF04E0B5
:100B2000002007490870FFF743FF0348C06940F001
:100B300080700149C86110BD00B00440B9020020B6
:100B4000B802002010B51C48806B40F400601A49C0
:100B500088631A4880691A49084318498861084619
:100B6000806940F0100088610846806920F001002B
:100B700088610846C069124908431049C86108469F
:100B8000C06940F01000C8610846C06920F001004B
:100B9000C8610C4800680B499439C1F894000948B1
:100BA000006808490860C0200449A0310860592045
:100BB00000F05EF910BD00000080044000B0044069
:100BC0000201090094F00F4010B50320FFF7A0FDCB
:100BD00001B2214800683222B0FBF2F302FB13029B
:100BE0001E4820F812100420FFF792FD01B21A48A7
:100BF00000683222B0FBF2F302FB1302184820F81F
:100C000012100520FFF784FD01B21348006832225C
:100C1000B0FBF2F302FB1302124820F81210062078
:100C2000FFF776FD01B20C4800683222B0FBF2F308
:100C300002FB13020C4820F8121008481038FFF786
:100C40007DFE07481038FFF779FE03480068401C16
:100C50000149086010BD0000BC020020E001002036
:100C60006C010020F8000020840000204CF220508D
:100C70005349C8814DF62810C8814FF4E9700880A7
:100C80005048514948640846806B40F400708863BE
:100C90004E48807800F0080028B14C48807840F039
:100CA00008004A4988704FF08970474948640846EF
:100CB000406840F4803048604548006840F4402077
:100CC000434908604348806C43490840414988646F
:100CD0000846C06C404908403E49C86424203F494A
:100CE000487080203E4908703C48007B00F0FE00C0
:100CF0003A490873A22008700846C07800F01F0027
:100D0000C870072008710C20487100BF33488079F3
:100D100000F002000028F9D000BF3048807900F0D0
:100D200010000028F9D100BF2C48807900F00C0099
:100D30000828F9D14C202949487100BF27488079FB
:100D400000F00C000828F9D100BF2448807900F099
:100D500040000028F9D022202049087000BF1F4819
:100D6000807900F00C000C28F9D11A48006920F0B5
:100D7000807040F4E060174908611A48407900F03B
:100D8000E000184948710846007900F0F800087141
:100D90000E48007800F0DC0040F050000B4908706D
:100DA0000846407800F0DC0040F0400048700846FB
:100DB000807800F0E600887000200B4908707047CA
:100DC00000200540000033010080044000D00740AF
:100DD0000070044000900440FFF8FFFE0040064011
:100DE0000050064000F0074000E0074010B51348EF
:100DF000806B40F48060114988630846406B40F482
:100E00008060486340F213300D4908644FF451701C
:100E100048640C48C07800F0F3000A49C87000200C
:100E200008702720487002208872042088702C20C7
:100E3000C8702D2000F01CF810BD00000080044098
:100E400000A0044000A00640024909790149C87980
:100E5000C871704700A0064000BF0449097901F03D
:100E600080010029F9D00149C871704700A00640EF
:100E7000002809DB00F01F02012191404209920085
:100E800002F1E022C2F8001170470000FFF75AFE9D
:100E9000FFF76EFDFFF722FCFFF7A8FFFFF7A0FDAD
:100EA0002A4800684FF47A72B0FBF2F1481EB0F1A4
:100EB000807F00D31BE0481E4FF0E02250615017A6
:100EC0000F22002804DB13071C0E214B1C5406E0E4
:100ED00013071D0E1F4B00F00F04241F1D5500BFEC
:100EE00000204FF0E02290610720106100BF322205
:100EF00019490020FFF778FB322218490020FFF73C
:100F000073FB322216490020FFF76EFB322215498F
:100F10000020FFF769FB17E01348007850B1022169
:100F20000D481038FFF70AFC02210C481038FFF773
:100F300005FC09E0002108481038FFF7FFFB0021FD
:100F400006481038FFF7FAFBE6E70000F40200203D
:100F500000E400E018ED00E0E00100206C0100205A
:100F6000F800002084000020B8020020050E0809C7
:100F70000D0C06070F04001303931A9217C58584FE
:100F80008687C40010000000040000000800000074
:100F900008000000100000000400000080000000B5
:100FA00000200000001000000100000040000000D0
:100FB00002000000D40F000000000020F802000032
:100FC0004C04000008100000F8020020600400003B
:100FD000A804000063010552C80265780B71010482
:100FE000740A7103740A7102740A7101740A70063A
:100FF00074C16D80F00F4004DAC004115904691007
:081000002924110400A24A0496
:04000005000004ED06
:00000001FF
